{
  "contractName": "MasoomContract",
  "abi": [
    {
      "constant": true,
      "inputs": [
        {
          "name": "",
          "type": "address"
        }
      ],
      "name": "voterDetails",
      "outputs": [
        {
          "name": "voterAddress",
          "type": "address"
        },
        {
          "name": "name",
          "type": "string"
        },
        {
          "name": "aadhar",
          "type": "string"
        },
        {
          "name": "constituency",
          "type": "uint256"
        },
        {
          "name": "hasVoted",
          "type": "bool"
        },
        {
          "name": "isVerified",
          "type": "bool"
        }
      ],
      "payable": false,
      "stateMutability": "view",
      "type": "function"
    },
    {
      "constant": true,
      "inputs": [
        {
          "name": "",
          "type": "uint256"
        }
      ],
      "name": "candidateDetails",
      "outputs": [
        {
          "name": "name",
          "type": "string"
        },
        {
          "name": "party",
          "type": "string"
        },
        {
          "name": "manifesto",
          "type": "string"
        },
        {
          "name": "voteCount",
          "type": "uint256"
        },
        {
          "name": "constituency",
          "type": "uint256"
        },
        {
          "name": "candidateId",
          "type": "uint256"
        }
      ],
      "payable": false,
      "stateMutability": "view",
      "type": "function"
    },
    {
      "constant": true,
      "inputs": [],
      "name": "owner",
      "outputs": [
        {
          "name": "",
          "type": "address"
        }
      ],
      "payable": false,
      "stateMutability": "view",
      "type": "function"
    },
    {
      "constant": true,
      "inputs": [
        {
          "name": "",
          "type": "uint256"
        }
      ],
      "name": "voters",
      "outputs": [
        {
          "name": "",
          "type": "address"
        }
      ],
      "payable": false,
      "stateMutability": "view",
      "type": "function"
    },
    {
      "inputs": [],
      "payable": false,
      "stateMutability": "nonpayable",
      "type": "constructor"
    },
    {
      "constant": true,
      "inputs": [],
      "name": "getOwner",
      "outputs": [
        {
          "name": "",
          "type": "address"
        }
      ],
      "payable": false,
      "stateMutability": "view",
      "type": "function"
    },
    {
      "constant": false,
      "inputs": [
        {
          "name": "_name",
          "type": "string"
        },
        {
          "name": "_party",
          "type": "string"
        },
        {
          "name": "_manifesto",
          "type": "string"
        },
        {
          "name": "_constituency",
          "type": "uint256"
        }
      ],
      "name": "addCandidate",
      "outputs": [],
      "payable": false,
      "stateMutability": "nonpayable",
      "type": "function"
    },
    {
      "constant": true,
      "inputs": [],
      "name": "getCandidateNumber",
      "outputs": [
        {
          "name": "",
          "type": "uint256"
        }
      ],
      "payable": false,
      "stateMutability": "view",
      "type": "function"
    },
    {
      "constant": false,
      "inputs": [
        {
          "name": "_name",
          "type": "string"
        },
        {
          "name": "_aadhar",
          "type": "string"
        },
        {
          "name": "_constituency",
          "type": "uint256"
        }
      ],
      "name": "requestVoter",
      "outputs": [],
      "payable": false,
      "stateMutability": "nonpayable",
      "type": "function"
    },
    {
      "constant": true,
      "inputs": [],
      "name": "getVoterCount",
      "outputs": [
        {
          "name": "",
          "type": "uint256"
        }
      ],
      "payable": false,
      "stateMutability": "view",
      "type": "function"
    },
    {
      "constant": false,
      "inputs": [
        {
          "name": "_address",
          "type": "address"
        }
      ],
      "name": "verifyVoter",
      "outputs": [],
      "payable": false,
      "stateMutability": "nonpayable",
      "type": "function"
    },
    {
      "constant": false,
      "inputs": [
        {
          "name": "candidateId",
          "type": "uint256"
        }
      ],
      "name": "vote",
      "outputs": [],
      "payable": false,
      "stateMutability": "nonpayable",
      "type": "function"
    },
    {
      "constant": false,
      "inputs": [],
      "name": "startElection",
      "outputs": [],
      "payable": false,
      "stateMutability": "nonpayable",
      "type": "function"
    },
    {
      "constant": false,
      "inputs": [],
      "name": "endElection",
      "outputs": [],
      "payable": false,
      "stateMutability": "nonpayable",
      "type": "function"
    },
    {
      "constant": true,
      "inputs": [],
      "name": "getStart",
      "outputs": [
        {
          "name": "",
          "type": "bool"
        }
      ],
      "payable": false,
      "stateMutability": "view",
      "type": "function"
    },
    {
      "constant": true,
      "inputs": [],
      "name": "getEnd",
      "outputs": [
        {
          "name": "",
          "type": "bool"
        }
      ],
      "payable": false,
      "stateMutability": "view",
      "type": "function"
    }
  ],
  "bytecode": "0x6060604052341561000f57600080fd5b336000806101000a81548173ffffffffffffffffffffffffffffffffffffffff021916908373ffffffffffffffffffffffffffffffffffffffff160217905550600060018190555060006002819055506000600360006101000a81548160ff0219169083151502179055506000600360016101000a81548160ff0219169083151502179055506111ee806100a46000396000f300606060405236156100d9576000357c0100000000000000000000000000000000000000000000000000000000900463ffffffff1680630121b93f146100de57806309bd09501461010157806311174a291461013a578063364dff25146101635780635938750d1461018c57806359f78468146103345780636247e5321461034957806362d73eb8146105295780637d9cf1961461053e578063893d20e8146105e75780638da5cb5b1461063c5780639f05a36d14610691578063c5292c67146106be578063d6aadfba146106eb578063da58c7d9146107d7575b600080fd5b34156100e957600080fd5b6100ff600480803590602001909190505061083a565b005b341561010c57600080fd5b610138600480803573ffffffffffffffffffffffffffffffffffffffff169060200190919050506109c5565b005b341561014557600080fd5b61014d610a7e565b6040518082815260200191505060405180910390f35b341561016e57600080fd5b610176610a88565b6040518082815260200191505060405180910390f35b341561019757600080fd5b6101c3600480803573ffffffffffffffffffffffffffffffffffffffff16906020019091905050610a92565b604051808773ffffffffffffffffffffffffffffffffffffffff1673ffffffffffffffffffffffffffffffffffffffff1681526020018060200180602001868152602001851515151581526020018415151515815260200183810383528881815460018160011615610100020316600290048152602001915080546001816001161561010002031660029004801561029c5780601f106102715761010080835404028352916020019161029c565b820191906000526020600020905b81548152906001019060200180831161027f57829003601f168201915b505083810382528781815460018160011615610100020316600290048152602001915080546001816001161561010002031660029004801561031f5780601f106102f45761010080835404028352916020019161031f565b820191906000526020600020905b81548152906001019060200180831161030257829003601f168201915b50509850505050505050505060405180910390f35b341561033f57600080fd5b610347610b06565b005b341561035457600080fd5b61036a6004808035906020019091905050610b99565b6040518080602001806020018060200187815260200186815260200185815260200184810384528a81815460018160011615610100020316600290048152602001915080546001816001161561010002031660029004801561040d5780601f106103e25761010080835404028352916020019161040d565b820191906000526020600020905b8154815290600101906020018083116103f057829003601f168201915b50508481038352898181546001816001161561010002031660029004815260200191508054600181600116156101000203166002900480156104905780601f1061046557610100808354040283529160200191610490565b820191906000526020600020905b81548152906001019060200180831161047357829003601f168201915b50508481038252888181546001816001161561010002031660029004815260200191508054600181600116156101000203166002900480156105135780601f106104e857610100808354040283529160200191610513565b820191906000526020600020905b8154815290600101906020018083116104f657829003601f168201915b5050995050505050505050505060405180910390f35b341561053457600080fd5b61053c610bd2565b005b341561054957600080fd5b6105e5600480803590602001908201803590602001908080601f0160208091040260200160405190810160405280939291908181526020018383808284378201915050505050509190803590602001908201803590602001908080601f01602080910402602001604051908101604052809392919081815260200183838082843782019150505050505091908035906020019091905050610c65565b005b34156105f257600080fd5b6105fa610e41565b604051808273ffffffffffffffffffffffffffffffffffffffff1673ffffffffffffffffffffffffffffffffffffffff16815260200191505060405180910390f35b341561064757600080fd5b61064f610e6a565b604051808273ffffffffffffffffffffffffffffffffffffffff1673ffffffffffffffffffffffffffffffffffffffff16815260200191505060405180910390f35b341561069c57600080fd5b6106a4610e8f565b604051808215151515815260200191505060405180910390f35b34156106c957600080fd5b6106d1610ea6565b604051808215151515815260200191505060405180910390f35b34156106f657600080fd5b6107d5600480803590602001908201803590602001908080601f0160208091040260200160405190810160405280939291908181526020018383808284378201915050505050509190803590602001908201803590602001908080601f0160208091040260200160405190810160405280939291908181526020018383808284378201915050505050509190803590602001908201803590602001908080601f01602080910402602001604051908101604052809392919081815260200183838082843782019150505050505091908035906020019091905050610ebd565b005b34156107e257600080fd5b6107f86004808035906020019091905050610ff8565b604051808273ffffffffffffffffffffffffffffffffffffffff1673ffffffffffffffffffffffffffffffffffffffff16815260200191505060405180910390f35b60001515600660003373ffffffffffffffffffffffffffffffffffffffff1673ffffffffffffffffffffffffffffffffffffffff16815260200190815260200160002060040160009054906101000a900460ff16151514151561089c57600080fd5b60011515600660003373ffffffffffffffffffffffffffffffffffffffff1673ffffffffffffffffffffffffffffffffffffffff16815260200190815260200160002060040160019054906101000a900460ff1615151415156108fe57600080fd5b60011515600360009054906101000a900460ff16151514151561092057600080fd5b60001515600360019054906101000a900460ff16151514151561094257600080fd5b600160046000838152602001908152602001600020600301600082825401925050819055506001600660003373ffffffffffffffffffffffffffffffffffffffff1673ffffffffffffffffffffffffffffffffffffffff16815260200190815260200160002060040160006101000a81548160ff02191690831515021790555050565b6000809054906101000a900473ffffffffffffffffffffffffffffffffffffffff1673ffffffffffffffffffffffffffffffffffffffff163373ffffffffffffffffffffffffffffffffffffffff16141515610a2057600080fd5b6001600660008373ffffffffffffffffffffffffffffffffffffffff1673ffffffffffffffffffffffffffffffffffffffff16815260200190815260200160002060040160016101000a81548160ff02191690831515021790555050565b6000600254905090565b6000600154905090565b60066020528060005260406000206000915090508060000160009054906101000a900473ffffffffffffffffffffffffffffffffffffffff1690806001019080600201908060030154908060040160009054906101000a900460ff16908060040160019054906101000a900460ff16905086565b6000809054906101000a900473ffffffffffffffffffffffffffffffffffffffff1673ffffffffffffffffffffffffffffffffffffffff163373ffffffffffffffffffffffffffffffffffffffff16141515610b6157600080fd5b6001600360016101000a81548160ff0219169083151502179055506000600360006101000a81548160ff021916908315150217905550565b60046020528060005260406000206000915090508060000190806001019080600201908060030154908060040154908060050154905086565b6000809054906101000a900473ffffffffffffffffffffffffffffffffffffffff1673ffffffffffffffffffffffffffffffffffffffff163373ffffffffffffffffffffffffffffffffffffffff16141515610c2d57600080fd5b6001600360006101000a81548160ff0219169083151502179055506000600360016101000a81548160ff021916908315150217905550565b610c6d611037565b60c0604051908101604052803373ffffffffffffffffffffffffffffffffffffffff16815260200185815260200184815260200183815260200160001515815260200160001515815250905080600660003373ffffffffffffffffffffffffffffffffffffffff1673ffffffffffffffffffffffffffffffffffffffff16815260200190815260200160002060008201518160000160006101000a81548173ffffffffffffffffffffffffffffffffffffffff021916908373ffffffffffffffffffffffffffffffffffffffff1602179055506020820151816001019080519060200190610d5c929190611094565b506040820151816002019080519060200190610d79929190611094565b506060820151816003015560808201518160040160006101000a81548160ff02191690831515021790555060a08201518160040160016101000a81548160ff02191690831515021790555090505060058054806001018281610ddb9190611114565b9160005260206000209001600033909190916101000a81548173ffffffffffffffffffffffffffffffffffffffff021916908373ffffffffffffffffffffffffffffffffffffffff16021790555050600160026000828254019250508190555050505050565b60008060009054906101000a900473ffffffffffffffffffffffffffffffffffffffff16905090565b6000809054906101000a900473ffffffffffffffffffffffffffffffffffffffff1681565b6000600360019054906101000a900460ff16905090565b6000600360009054906101000a900460ff16905090565b610ec5611140565b6000809054906101000a900473ffffffffffffffffffffffffffffffffffffffff1673ffffffffffffffffffffffffffffffffffffffff163373ffffffffffffffffffffffffffffffffffffffff16141515610f2057600080fd5b60c060405190810160405280868152602001858152602001848152602001600081526020018381526020016001548152509050806004600060015481526020019081526020016000206000820151816000019080519060200190610f85929190611094565b506020820151816001019080519060200190610fa2929190611094565b506040820151816002019080519060200190610fbf929190611094565b50606082015181600301556080820151816004015560a08201518160050155905050600180600082825401925050819055505050505050565b60058181548110151561100757fe5b90600052602060002090016000915054906101000a900473ffffffffffffffffffffffffffffffffffffffff1681565b60c060405190810160405280600073ffffffffffffffffffffffffffffffffffffffff168152602001611068611189565b8152602001611075611189565b8152602001600081526020016000151581526020016000151581525090565b828054600181600116156101000203166002900490600052602060002090601f016020900481019282601f106110d557805160ff1916838001178555611103565b82800160010185558215611103579182015b828111156111025782518255916020019190600101906110e7565b5b509050611110919061119d565b5090565b81548183558181151161113b5781836000526020600020918201910161113a919061119d565b5b505050565b60c060405190810160405280611154611189565b8152602001611161611189565b815260200161116e611189565b81526020016000815260200160008152602001600081525090565b602060405190810160405280600081525090565b6111bf91905b808211156111bb5760008160009055506001016111a3565b5090565b905600a165627a7a72305820084eea9777fb1067ecee2f6a4f48ee334f5968d61c882cf9054e2e5cc6c4f1ea0029",
  "source": "// SPDX-License-Identifier: MIT\npragma solidity ^0.4.17;\n\ncontract MasoomContract {\naddress public owner;\nuint candidateCount;\nuint voterCount;\nbool start;\nbool end;\nfunction MasoomContract () public {\n   owner = msg.sender;\n   candidateCount = 0;\n   voterCount = 0;\n   start = false;\n   end = false;\n}\nfunction getOwner() public view returns(address) {\n   return owner;\n}\n// Only Admin can access\nmodifier onlyAdmin() {\n   require(msg.sender == owner);\n   _;\n}\nstruct Candidate{\n   string name;\n   string party;\n   string manifesto;\n   uint voteCount;\n   uint constituency;\n   uint candidateId;\n}\nmapping(uint => Candidate) public candidateDetails;\n// Only admin can add candidate\nfunction addCandidate(string _name, string _party, string _manifesto, uint _constituency) public onlyAdmin {\n   Candidate memory newCandidate = Candidate({\n     name : _name,\n     party : _party,\n     manifesto : _manifesto,\n     voteCount : 0,\n     constituency : _constituency,\n     candidateId : candidateCount\n   });\n   candidateDetails[candidateCount] = newCandidate;\n   candidateCount += 1;\n}\n// get total number of candidates\nfunction getCandidateNumber() public view returns (uint) {\n   return candidateCount;\n}\nstruct Voter{\n   address voterAddress;\n   string name;\n   string aadhar;\n   uint constituency;\n   bool hasVoted;\n   bool isVerified;\n}\naddress[] public voters;\nmapping(address => Voter) public voterDetails;\n// request to be added as voter\nfunction requestVoter(string _name, string _aadhar, uint _constituency) public {\n   Voter memory newVoter = Voter({\n     voterAddress : msg.sender,\n     name : _name,\n     aadhar : _aadhar,\n     constituency : _constituency,\n     hasVoted : false,\n     isVerified : false\n   });\n   voterDetails[msg.sender] = newVoter;\n   voters.push(msg.sender);\n   voterCount += 1;\n}\n// get total number of voters\nfunction getVoterCount() public view returns (uint) {\n   return voterCount;\n}\nfunction verifyVoter(address _address) public onlyAdmin {\n   voterDetails[_address].isVerified = true;\n}\nfunction vote(uint candidateId) public{\n   require(voterDetails[msg.sender].hasVoted == false);\n   require(voterDetails[msg.sender].isVerified == true);\n   require(start == true);\n   require(end == false);\n   candidateDetails[candidateId].voteCount += 1;\n   voterDetails[msg.sender].hasVoted = true;\n}\nfunction startElection() public onlyAdmin {\n   start = true;\n   end = false;\n}\nfunction endElection() public onlyAdmin {\n   end = true;\n   start = false;\n}\nfunction getStart() public view returns (bool) {\n   return start;\n}\nfunction getEnd() public view returns (bool) {\n   return end;\n}\n}\n",
  "sourcePath": "C:\\Users\\tinlee\\Documents\\side-projects\\voting-system-blockchain\\contracts\\MasoomContract.sol",
  "compiler": {
    "name": "solc",
    "version": "0.4.17+commit.bdeb9e52.Emscripten.clang"
  },
  "schemaVersion": "3.4.3",
  "updatedAt": "2021-11-22T09:12:32.312Z",
  "devdoc": {
    "methods": {}
  },
  "userdoc": {
    "methods": {}
  }
}